{
  "_format": "hh-sol-artifact-1",
  "contractName": "UniswapV3Oracle",
  "sourceName": "contracts/uniswapV3Oracle.sol",
  "abi": [
    {
      "inputs": [
        {
          "internalType": "address",
          "name": "pool",
          "type": "address"
        }
      ],
      "stateMutability": "nonpayable",
      "type": "constructor"
    },
    {
      "inputs": [],
      "name": "getPrice",
      "outputs": [
        {
          "internalType": "uint160",
          "name": "price",
          "type": "uint160"
        },
        {
          "internalType": "uint256",
          "name": "decimalAdjFactor",
          "type": "uint256"
        }
      ],
      "stateMutability": "view",
      "type": "function"
    }
  ],
  "bytecode": "0x60806040523480156200001157600080fd5b506040516200155f3803806200155f833981810160405281019062000037919062000095565b806000806101000a81548173ffffffffffffffffffffffffffffffffffffffff021916908373ffffffffffffffffffffffffffffffffffffffff160217905550506200010f565b6000815190506200008f81620000f5565b92915050565b600060208284031215620000a857600080fd5b6000620000b8848285016200007e565b91505092915050565b6000620000ce82620000d5565b9050919050565b600073ffffffffffffffffffffffffffffffffffffffff82169050919050565b6200010081620000c1565b81146200010c57600080fd5b50565b611440806200011f6000396000f3fe608060405234801561001057600080fd5b506004361061002b5760003560e01c806398d5fdca14610030575b600080fd5b61003861004f565b604051610046929190610d24565b60405180910390f35b60008060008060009054906101000a900473ffffffffffffffffffffffffffffffffffffffff1690506000600267ffffffffffffffff8111156100bb577f4e487b7100000000000000000000000000000000000000000000000000000000600052604160045260246000fd5b6040519080825280602002602001820160405280156100e95781602001602082028036833780820191505090505b50905061271081600081518110610129577f4e487b7100000000000000000000000000000000000000000000000000000000600052603260045260246000fd5b602002602001019063ffffffff16908163ffffffff168152505060008160018151811061017f577f4e487b7100000000000000000000000000000000000000000000000000000000600052603260045260246000fd5b602002602001019063ffffffff16908163ffffffff168152505060008273ffffffffffffffffffffffffffffffffffffffff1663883bdbfd836040518263ffffffff1660e01b81526004016101d49190610ce2565b60006040518083038186803b1580156101ec57600080fd5b505afa158015610200573d6000803e3d6000fd5b505050506040513d6000823e3d601f19601f820116820180604052508101906102299190610b6a565b509050600081600081518110610268577f4e487b7100000000000000000000000000000000000000000000000000000000600052603260045260246000fd5b6020026020010151826001815181106102aa577f4e487b7100000000000000000000000000000000000000000000000000000000600052603260045260246000fd5b60200260200101516102bc91906110dc565b90506000836001815181106102fa577f4e487b7100000000000000000000000000000000000000000000000000000000600052603260045260246000fd5b60200260200101518460008151811061033c577f4e487b7100000000000000000000000000000000000000000000000000000000600052603260045260246000fd5b602002602001015161034e9190611157565b63ffffffff169050600081610362906112cb565b8361036d9190610e76565b905060008673ffffffffffffffffffffffffffffffffffffffff16630dfe16816040518163ffffffff1660e01b815260040160206040518083038186803b1580156103b757600080fd5b505afa1580156103cb573d6000803e3d6000fd5b505050506040513d601f19601f820116820180604052508101906103ef9190610b41565b73ffffffffffffffffffffffffffffffffffffffff1663313ce5676040518163ffffffff1660e01b815260040160206040518083038186803b15801561043457600080fd5b505afa158015610448573d6000803e3d6000fd5b505050506040513d601f19601f8201168201806040525081019061046c9190610bd6565b90506000610479836104f3565b905060008173ffffffffffffffffffffffffffffffffffffffff168273ffffffffffffffffffffffffffffffffffffffff166104b59190611082565b905060c0670de0b6b3a7640000826104cd9190611082565b901c63ffffffff169a5082600a6104e49190610f64565b99505050505050505050509091565b60008060008360020b1261050a578260020b610518565b8260020b61051790611282565b5b90507ffffffffffffffffffffffffffffffffffffffffffffffffffffffffffff2761861054490611239565b62ffffff1681111561058b576040517f08c379a000000000000000000000000000000000000000000000000000000000815260040161058290610d04565b60405180910390fd5b6000806001831614156105af577001000000000000000000000000000000006105c1565b6ffffcb933bd6fad37aa2d162d1a5940015b70ffffffffffffffffffffffffffffffffff169050600060028316146106045760806ffff97272373d413259a46990580e213a826105ff9190611082565b901c90505b600060048316146106325760806ffff2e50f5f656932ef12357cf3c7fdcc8261062d9190611082565b901c90505b600060088316146106605760806fffe5caca7e10e4e61c3624eaa0941cd08261065b9190611082565b901c90505b6000601083161461068e5760806fffcb9843d60f6159c9db58835c926644826106899190611082565b901c90505b600060208316146106bc5760806fff973b41fa98c081472e6896dfb254c0826106b79190611082565b901c90505b600060408316146106ea5760806fff2ea16466c96a3843ec78b326b52861826106e59190611082565b901c90505b600060808316146107185760806ffe5dee046a99a2a811c461f1969c3053826107139190611082565b901c90505b60006101008316146107475760806ffcbe86c7900a88aedcffc83b479aa3a4826107429190611082565b901c90505b60006102008316146107765760806ff987a7253ac413176f2b074cf7815e54826107719190611082565b901c90505b60006104008316146107a55760806ff3392b0822b70005940c7a398e4b70f3826107a09190611082565b901c90505b60006108008316146107d45760806fe7159475a2c29b7443b29c7fa6e889d9826107cf9190611082565b901c90505b60006110008316146108035760806fd097f3bdfd2022b8845ad8f792aa5825826107fe9190611082565b901c90505b60006120008316146108325760806fa9f746462d870fdf8a65dc1f90e061e58261082d9190611082565b901c90505b60006140008316146108615760806f70d869a156d2a1b890bb3df62baf32f78261085c9190611082565b901c90505b60006180008316146108905760806f31be135f97d08fd981231505542fcfa68261088b9190611082565b901c90505b6000620100008316146108c05760806f09aa508b5b7a84e1c677de54f3e99bc9826108bb9190611082565b901c90505b6000620200008316146108ef5760806e5d6af8dedb81196699c329225ee604826108ea9190611082565b901c90505b60006204000083161461091d5760806d2216e584f5fa1ea926041bedfe98826109189190611082565b901c90505b6000620800008316146109495760806b048a170391f7dc42444e8fa2826109449190611082565b901c90505b60008460020b131561098457807fffffffffffffffffffffffffffffffffffffffffffffffffffffffffffffffff6109819190610ee0565b90505b6000640100000000826109979190611208565b146109a35760016109a6565b60005b60ff16602082901c6109b89190610e20565b92505050919050565b60006109d46109cf84610d7e565b610d4d565b905080838252602082019050828560208602820111156109f357600080fd5b60005b85811015610a235781610a098882610b02565b8452602084019350602083019250506001810190506109f6565b5050509392505050565b6000610a40610a3b84610daa565b610d4d565b90508083825260208201905082856020860282011115610a5f57600080fd5b60005b85811015610a8f5781610a758882610b17565b845260208401935060208301925050600181019050610a62565b5050509392505050565b600081519050610aa8816113ae565b92915050565b600082601f830112610abf57600080fd5b8151610acf8482602086016109c1565b91505092915050565b600082601f830112610ae957600080fd5b8151610af9848260208601610a2d565b91505092915050565b600081519050610b11816113c5565b92915050565b600081519050610b26816113dc565b92915050565b600081519050610b3b816113f3565b92915050565b600060208284031215610b5357600080fd5b6000610b6184828501610a99565b91505092915050565b60008060408385031215610b7d57600080fd5b600083015167ffffffffffffffff811115610b9757600080fd5b610ba385828601610aae565b925050602083015167ffffffffffffffff811115610bc057600080fd5b610bcc85828601610ad8565b9150509250929050565b600060208284031215610be857600080fd5b6000610bf684828501610b2c565b91505092915050565b6000610c0b8383610cd3565b60208301905092915050565b6000610c2282610de6565b610c2c8185610dfe565b9350610c3783610dd6565b8060005b83811015610c68578151610c4f8882610bff565b9750610c5a83610df1565b925050600181019050610c3b565b5085935050505092915050565b6000610c82600183610e0f565b91507f54000000000000000000000000000000000000000000000000000000000000006000830152602082019050919050565b610cbe816111c1565b82525050565b610ccd816111e1565b82525050565b610cdc816111eb565b82525050565b60006020820190508181036000830152610cfc8184610c17565b905092915050565b60006020820190508181036000830152610d1d81610c75565b9050919050565b6000604082019050610d396000830185610cb5565b610d466020830184610cc4565b9392505050565b6000604051905081810181811067ffffffffffffffff82111715610d7457610d73611372565b5b8060405250919050565b600067ffffffffffffffff821115610d9957610d98611372565b5b602082029050602081019050919050565b600067ffffffffffffffff821115610dc557610dc4611372565b5b602082029050602081019050919050565b6000819050602082019050919050565b600081519050919050565b6000602082019050919050565b600082825260208201905092915050565b600082825260208201905092915050565b6000610e2b826111e1565b9150610e36836111e1565b9250827fffffffffffffffffffffffffffffffffffffffffffffffffffffffffffffffff03821115610e6b57610e6a611314565b5b828201905092915050565b6000610e81826111b4565b9150610e8c836111b4565b925082610e9c57610e9b611343565b5b600160000383147fffffffffffffffffffffffffffffffffffffffffffffffffff8000000000000083141615610ed557610ed4611314565b5b828205905092915050565b6000610eeb826111e1565b9150610ef6836111e1565b925082610f0657610f05611343565b5b828204905092915050565b6000808291508390505b6001851115610f5b57808604811115610f3757610f36611314565b5b6001851615610f465780820291505b8081029050610f54856113a1565b9450610f1b565b94509492505050565b6000610f6f826111e1565b9150610f7a836111fb565b9250610fa77fffffffffffffffffffffffffffffffffffffffffffffffffffffffffffffffff8484610faf565b905092915050565b600082610fbf576001905061107b565b81610fcd576000905061107b565b8160018114610fe35760028114610fed5761101c565b600191505061107b565b60ff841115610fff57610ffe611314565b5b8360020a91508482111561101657611015611314565b5b5061107b565b5060208310610133831016604e8410600b84101617156110515782820a90508381111561104c5761104b611314565b5b61107b565b61105e8484846001610f11565b9250905081840481111561107557611074611314565b5b81810290505b9392505050565b600061108d826111e1565b9150611098836111e1565b9250817fffffffffffffffffffffffffffffffffffffffffffffffffffffffffffffffff04831182151516156110d1576110d0611314565b5b828202905092915050565b60006110e7826111b4565b91506110f2836111b4565b9250827fffffffffffffffffffffffffffffffffffffffffffffffffff800000000000000182126000841215161561112d5761112c611314565b5b82667fffffffffffff01821360008412161561114c5761114b611314565b5b828203905092915050565b6000611162826111eb565b915061116d836111eb565b9250828210156111805761117f611314565b5b828203905092915050565b6000611196826111c1565b9050919050565b60008160020b9050919050565b6000819050919050565b60008160060b9050919050565b600073ffffffffffffffffffffffffffffffffffffffff82169050919050565b6000819050919050565b600063ffffffff82169050919050565b600060ff82169050919050565b6000611213826111e1565b915061121e836111e1565b92508261122e5761122d611343565b5b828206905092915050565b60006112448261119d565b91507fffffffffffffffffffffffffffffffffffffffffffffffffffffffffff80000082141561127757611276611314565b5b816000039050919050565b600061128d826111aa565b91507f80000000000000000000000000000000000000000000000000000000000000008214156112c0576112bf611314565b5b816000039050919050565b60006112d6826111b4565b91507fffffffffffffffffffffffffffffffffffffffffffffffffff8000000000000082141561130957611308611314565b5b816000039050919050565b7f4e487b7100000000000000000000000000000000000000000000000000000000600052601160045260246000fd5b7f4e487b7100000000000000000000000000000000000000000000000000000000600052601260045260246000fd5b7f4e487b7100000000000000000000000000000000000000000000000000000000600052604160045260246000fd5b60008160011c9050919050565b6113b78161118b565b81146113c257600080fd5b50565b6113ce816111b4565b81146113d957600080fd5b50565b6113e5816111c1565b81146113f057600080fd5b50565b6113fc816111fb565b811461140757600080fd5b5056fea2646970667358221220bdc0edd2d18ed258082b0ca885b872b9c79bc98852608ad35f3faad5f38c83c364736f6c63430008000033",
  "linkReferences": {},
  "deployedLinkReferences": {}
}